:020000040800F2
:1000000028070020CD0100083B1800084511000812
:1000100039180008D3020008E11A000800000000A7
:100020000000000000000000000000001919000896
:10003000D5020008000000003D180008F119000872
:10004000E7010008E7010008E7010008E7010008F0
:10005000E7010008E7010008E7010008E7010008E0
:10006000E7010008E7010008E7010008E7010008D0
:10007000E7010008E7010008E7010008E7010008C0
:10008000E7010008E7010008E7010008E7010008B0
:10009000E7010008E7010008E7010008E7010008A0
:1000A000E7010008E7010008E7010008E701000890
:1000B000E7010008E7010008E7010008E701000880
:1000C000E7010008E7010008E7010008E701000870
:1000D000E7010008E7010008E7010008E701000860
:1000E000E7010008E7010008E7010008E701000850
:1000F000E7010008E7010008E7010008E701000840
:10010000E7010008E7010008E7010008E70100082F
:10011000E7010008E7010008E7010008E70100081F
:10012000E7010008E7010008E7010008E70100080F
:1001300000F002F800F03AF80AA090E8000C8244BF
:100140008344AAF10107DA4501D100F02FF8AFF29C
:10015000090EBAE80F0013F0010F18BFFB1A43F0A5
:1001600001031847582B0000782B0000103A24BFD9
:1001700078C878C1FAD8520724BF30C830C144BF0C
:1001800004680C607047000000230024002500264E
:10019000103A28BF78C1FBD8520728BF30C148BFEA
:1001A0000B6070471FB51FBD10B510BD00F058F8AB
:1001B0001146FFF7F7FF01F0C3FC00F076F803B437
:1001C000FFF7F2FF03BC00F07DF80000094880470C
:1001D00009480047FEE7FEE7FEE7FEE7FEE7FEE729
:1001E000FEE7FEE7FEE7FEE704480549054A064B41
:1001F00070470000531A0008310100082801002050
:100200002807002028030020280300204FF00002C8
:1002100000B5134694469646203922BFA0E80C50FC
:10022000A0E80C50B1F12001BFF4F7AF090728BFD7
:10023000A0E80C5048BF0CC05DF804EB890028BF53
:1002400040F8042B08BF704748BF20F8022B11F07C
:10025000804F18BF00F8012B7047704770477047F8
:10026000754600F02BF8AE4605006946534620F06F
:100270000700854618B020B5FFF7B6FFBDE820405F
:100280004FF000064FF000074FF000084FF0000B52
:1002900021F00701AC46ACE8C009ACE8C009ACE805
:1002A000C009ACE8C0098D46704710B50446AFF3ED
:1002B00000802046BDE81040FFF781BF004870472E
:1002C000C400002001491820ABBEFEE72600020052
:1002D0007047FEE7704772B6FEE700002DE9FF4F5A
:1002E00083B004460520CDE90040DDF844B0002786
:1002F0004FF080093148109A07EB071110F81130C0
:100300001278934240D100EB410A10989AF80110FC
:100310004078814238D1049804990F3083B204F1B7
:100320000F0082B2204601F0D9F8002600250AEB22
:10033000060800BFBBF1000F13D0214905980880C3
:1003400098F8021029FA05F0014203D020460499DA
:1003500000F06AFF641C0098A4B2201A102826D06E
:100360000AE098F8021029FA05F0014201D0059838
:1003700000E0069801F080F96D1CEDB2082DD9D38C
:10038000761CF6B2202ED1D37F1C0198BFB28742D3
:10039000B0D30C484188008807B0491EBDE8F04F33
:1003A000401E8BB282B20021084601F097B8049833
:1003B000009C401C80B20490E2E700006228000824
:1003C00010000020B40000202DE9FF4F83B0044648
:1003D0000B20CDE90040DDF844B000274FF0800944
:1003E00007EB870000EB47113048109A10F81130E6
:1003F0001278934240D100EB410A10989AF801100C
:100400004078814238D104980499173083B204F1BE
:10041000170082B2204601F061F8002600250AEBA1
:10042000060800BFBBF1000F13D0214905980880D2
:1004300098F8021029FA05F0014203D020460499E9
:1004400000F0F2FE641C0098A4B2201A182826D0EE
:100450000AE098F8021029FA05F0014201D0059847
:1004600000E0069801F008F96D1CEDB2082DD9D313
:10047000761CF6B2482ED1D37F1C0198BFB28742BA
:10048000AED30C484188008807B0491EBDE8F04F44
:10049000401E8BB282B20021084601F01FB80498BA
:1004A000009C401C80B20490E2E700000C29000888
:1004B00010000020B40000202DE9FF4F83B0044657
:1004C0000120CDE90040DDF844B000274FF080095D
:1004D0003148109A07EB871110F8113012789342C7
:1004E00040D100EB410A10989AF8011040788142FF
:1004F00038D1049804991F3083B204F11F0082B2EE
:10050000204600F0EBFF002600250AEB060800BF9E
:10051000BBF1000F13D021490598088098F802100C
:1005200029FA05F0014203D02046049900F07CFE30
:10053000641C0098A4B2201A202826D00AE098F85B
:10054000021029FA05F0014201D0059800E0069852
:1005500001F092F86D1CEDB2082DD9D3761CF6B2DD
:10056000802ED1D37F1C0198BFB28742B0D30C48F4
:100570004188008807B0491EBDE8F04F401E8BB28D
:1005800082B20021084600F0A9BF0498009C401CDC
:1005900080B20490E2E700003A2C0008100000202E
:1005A000B400002070B5044600F010F90546601C48
:1005B00002D004480078044400F008F9401BA0422F
:1005C000FAD370BD000000202DE9F84FDFF8C89184
:1005D0000024A9F1040B23460F2709F1040AABF10B
:1005E000040ED1E00125A54006EA0502AA4276D113
:1005F000DFF8A8C14E68A6EB0C0866452BD00DDCD1
:10060000032E34D005DC36B3012E19D0022E2FD1A3
:100610001BE0112E16D0122E2AD119E0B8F5881F32
:1006200019D006DCB8F5803F15D0B8F5801F1FD172
:1006300011E0B8F5001F0ED0B8F5041F18D10AE07C
:10064000CB6815E0CB681B1D12E0CB6808330FE0C8
:10065000CB680C330CE08B682BB1012B4FF00803F7
:1006600003D0456104E0042302E0056100E00023BB
:10067000FF2A01D8064601E000F104064FEA84058E
:1006800001D9A5F12005D6F8008007FA05FC28EA73
:100690000C0803FA05F548EA0508C6F800804D681D
:1006A000ED0070D53E4DAE6946F00106AE61AD6914
:1006B00024F0030605F0010500953A4D06EB050C04
:1006C000DCF80850A607360F07FA06F825EA0805F1
:1006D000DFF8D480404503D14FF0000825E052E018
:1006E000DFF8C880404502D14FF001081DE0DFF877
:1006F000C080404502D14FF0020816E0DFF8B48018
:10070000404502D14FF003080FE0DFF8AC804045D0
:1007100002D14FF0040808E0DFF8A080404502D184
:100720004FF0050801E04FF0060808FA06F848EA1D
:100730000508CCF808804D68D9F80060ED024D46F8
:1007400001D5164300E096432E604D68DAF800604C
:10075000AD02554601D5164300E096432E604D6824
:10076000DBF80060AD035D4601D5164300E096431B
:100770002E604D68DEF80060ED03754601D5164326
:1007800000E096432E60641C0A681646E2407FF43F
:1007900029AFBDE8F88F00000804014000001110E7
:1007A000001002400000014000080140000C014020
:1007B000001001400014014000180140001C0140DD
:1007C0000AB1016170470904FBE700000148806835
:1007D0007047000000000020024881680278114440
:1007E0008160704700000020074810B5016841F0A3
:1007F00010010160032000F067F80F2000F006F8F8
:1008000000F024F8002010BD0020024070B50D4D0E
:1008100004464FF47A712878B1FBF0F00A49096870
:10082000B1FBF0F000F0F9FB48B9102C07D2002220
:100830002146501E00F028F800206C6070BD012099
:1008400070BD0000000000200C0000200C4808B51E
:10085000816941F001018161816901F0010100912B
:10086000C16941F08051C161C06900F080500090C1
:100870000448416821F0E06141F00071416008BD29
:100880000010024000000140F0B40E4B1B680C4603
:10089000C3F30223C3F10705042D00D90425191D54
:1008A000072901D2002300E0DB1E012606FA05F12C
:1008B000491E214099409E40761E16403143F0BCAF
:1008C00001F00FB90CED00E0064900F007020868DE
:1008D0004FF6FF03184040EA0220034A1043086025
:1008E000704700000CED00E00000FA052DE9F0472C
:1008F0000F46050061D0434E306800F00700B84253
:1009000009D2306820F0070038433060306800F0CA
:100910000700B84251D128683B4C810712D54007E7
:1009200003D5606840F4E06060602878000703D574
:10093000606840F4605060606068A96820F0F00072
:10094000084360602878C00728D06868012810D064
:100950002168022810D0890700292EDA616821F069
:10096000030101436160FFF731FF804641F288399E
:100970000DE021688903EFE78901EDE7FFF726FF26
:10098000A0EB0801494502D90320BDE8F087606863
:10099000696800F00C00B0EB810FEFD1306800F017
:1009A0000700B8420BD9306820F0070038433060A8
:1009B000306800F00700B84201D00120E5E7287850
:1009C000400705D56068E96820F4E060084360608E
:1009D0002878000706D56068296920F4605040EA4D
:1009E000C100606000F018F86168084AC1F30311A3
:1009F000515CC8400649086006480068FFF706FFDA
:100A00000020C2E70020024000100240AE1B000898
:100A10000C000020040000200E4A51680E4801F02E
:100A20000C03042B11D0082B0FD10C48C1F38343C6
:100A3000C903C05C0AD55168084AC1F34041921EFF
:100A4000515C054A5043B0FBF1F0704704494843FC
:100A5000704700000010024000127A009E1B000840
:100A600000093D002DE9F84F040070D02078C04DFA
:100A7000C00749D06868C0F38100012807D06868C2
:100A8000C0F38100022809D16868C00306D5286830
:100A9000800339D560680028E7D035E06068B0F59C
:100AA000803F0BD010B1B0F5A02F11D0286820F4F2
:100AB00080302860286820F4802002E0286840F414
:100AC00080302860606890B1FFF780FE06460AE03B
:100AD000286840F480202860F0E700BFFFF776FE2A
:100AE000801B642873D828688003F7D50CE0FFF7D3
:100AF0006DFE064605E000BFFFF768FE801B642818
:100B0000F0D828688003F7D420789A4E80074FF0F9
:100B100001094FF0000839D5686810F00C0F07D0B4
:100B20006868C0F38100022809D16868C00306D450
:100B30002868800714D52069012808D110E02069B1
:100B4000B0B1C6F80090FFF741FE074605E00AE1A4
:100B5000FFF73CFEC01B0228C4D828688007F7D5E1
:100B60002868616920F0F80040EAC10028600DE0C3
:100B7000C6F80080FFF72AFE074604E0FFF726FECE
:100B8000C01B022823D828688007F7D420780007E4
:100B90002CD57948A169D9B1C0F80090FFF716FEAD
:100BA000074604E0FFF712FEC01B02280FD8686A50
:100BB0008007F7D571484FF4FA510068B0FBF1F0A7
:100BC000009000BF0098411E0091FAD20EE080E034
:100BD000C0F80080FFF7FAFD074604E0FFF7F6FDD6
:100BE000C01B022875D8686A8007F7D420784007B0
:100BF00060D5E8690027C00008D4E86940F080505B
:100C0000E861E869012700F0805000905C480168C5
:100C1000C90513D40168834641F480710160FFF770
:100C2000D5FD824606E000BFFFF7D0FDA0EB0A002D
:100C300064284ED8DBF80000C005F5D5E06801282F
:100C40000AD008B1052813D0286A20F001002862D4
:100C5000286A20F0040002E0286A40F001002862BF
:100C6000E06841F2883B98B1FFF7B0FD82460BE0A7
:100C7000286A40F004002862EEE700BFFFF7A6FDF7
:100C8000A0EB0A0159455AD8286A8007F6D50CE02E
:100C9000FFF79CFD824605E0FFF798FDA0EB0A01F7
:100CA00059454CD8286A8007F6D41FB1E86920F06E
:100CB0008050E861E06988B36968C1F38101022965
:100CC00044D00228C6F8608004D0FFF77FFD0446B8
:100CD00038E034E0FFF77AFD074604E0FFF776FDE1
:100CE000C01B02282BD828688001F7D4206AB0F5F1
:100CF000803F05D16868A16820F40030084368602F
:100D0000D4E908010843696821F474110843686054
:100D1000C6F86090FFF75AFD044606E025E000BFE4
:100D2000FFF754FD001B022809D828688001F7D579
:100D30001BE000BFFFF74AFD001B022802D9032079
:100D4000BDE8F88F28688001F4D40EE00128F7D0C0
:100D50006868226A00F48031914204D1616A00F42B
:100D60007010884201D00120EAE70020E8E7000087
:100D70000010024000004242800442420C00002069
:100D80000070004070B5040009D0606A002540B1D1
:100D900025616561A56294F8510040B10CE0012025
:100DA00070BD6068B0F5827FF4D0E561F2E784F849
:100DB0005050204600F040F8022084F8510020688E
:100DC000016821F040010160A088218900F482704F
:100DD00001F404410843A18901F400610843217C26
:100DE00001F002010843217D01F001010843218B3C
:100DF00001F400710843217F01F03801084394F8A1
:100E0000201001F080010843218D01F400510843B6
:100E100021680860A069042101EA10402168486047
:100E20002068C16921F40061C1616565012084F811
:100E30005100002070BD000030B585B00024009442
:100E400001940294039400681549884225D11548FD
:100E5000C16941F48041C161C16901F480410491DB
:100E6000816941F00801816180690F4D00F008003F
:100E700004904FF420400090022001900320039042
:100E800069462846FFF7A0FB4FF48040CDE90004F7
:100E9000694628460294FFF797FB05B030BD000075
:100EA0000038004000100240000C01402DE9F84FCE
:100EB000044690F850000026984615468A460128B8
:100EC0000CD0012784F85070FFF780FC814694F81D
:100ED0005100B346012804D002269AE00220BDE862
:100EE000F88FBAF1000F6FD0002D6DD0032084F879
:100EF0005100C4F854B0C4F830A0A586E586C4F803
:100F000038B0A4F83CB0A4F83EB0C4F844B0C4F87B
:100F100040B0A068B0F5004F09D12068016821F009
:100F2000400101602068016841F48041016020684F
:100F30000168490603D4016841F040010160E0689E
:100F4000B0F5006F606803D058B3012D29D049E097
:100F500008B1012D1FD1206B21680088C86006E010
:100F600020688168890709D5216B0988C160206BD9
:100F7000801C2063E08E401EE0860CE0FFF726FC1C
:100F8000A0EB0901414503D3B8F1FF3F03D006E0D0
:100F9000B8F1000F03D0E08E0028E1D125E0032650
:100FA00035E0206B21680078087306E020688168CE
:100FB00089070AD5216B09780173206B401C2063D7
:100FC000E08E401EE0860DE01FE0FFF7FFFBA0EB88
:100FD0000901414503D3B8F1FF3F03D0DFE7B8F182
:100FE000000FDCD0E08E0028E0D14A464146204682
:100FF00000F025FC08B120206065A06818B92068C1
:10100000C16880680090606D08B1012601E084F835
:10101000517084F850B0304661E710B5401EB0F111
:10102000807F01D3012010BD4FF0E02460610F21CB
:10103000601700F056FD0020A0610720206100200D
:1010400010BD000070B590F83C20012A2CD001247E
:1010500080F83C40022280F83D2003685A689D6871
:1010600022F070060A6832435A60104B02689A42B6
:101070000ED00F4B9A420BD0B2F1804F08D00D4BDF
:101080009A4205D00C4B9A4202D00C4B9A4204D1A2
:10109000496825F080031943916080F83D400021A4
:1010A00080F83C10084670BD022070BD002C014045
:1010B000003401400004004000080040000C0040E3
:1010C00010B5040003D094F83D0010B107E00120F2
:1010D00010BD002084F83C00204600F01FF80220DC
:1010E00084F83D00211D206800F0B4FC012084F844
:1010F000460084F83E0084F83F0084F8400084F8FD
:10110000410084F8420084F8430084F8440084F8E5
:10111000450084F83D00002010BD000008B50068BF
:101120000649884208D10648C16941F01001C161F1
:10113000C06900F01000009008BD000000100040E1
:1011400000100240FEE700002DE9F0410E4C07467A
:1011500000216088401E83B22088401E82B208466B
:1011600000F0BCF9002609E0002503E0384600F055
:1011700083FA6D1C6088A842F8D8761C2088B0429B
:10118000F2D8BDE8F0810000B40000202DE9FE4F48
:10119000161ACDE900104FF000085D1A47464FF0CF
:1011A000FF30002E02DD4FF0010102E003D14FF0CD
:1011B00000018B4602E08346C6F10006002D02DDE9
:1011C0004FF0010002E003D14FF00000824602E040
:1011D0008246C5F10005AE4201DD344600E02C46F2
:1011E000601C4FF00009029018E0009881B201984D
:1011F00080B200F019F8B0442F44A04504DD0198F6
:10120000A8EB040858440190A74203DD00983F1B57
:101210005044009009F101001FFA80F902998945B4
:10122000E3DDBDE8FE8F000010B500F041F9034892
:101230000088BDE8104000F01FBA00001000002038
:101240002DE9F0411C4615460E4607460B46FFF7B2
:101250009DFF3A46234631461046FFF797FF234647
:101260002A4619463846FFF791FF2A46234631465B
:10127000BDE8F0411046FFF789BF10B500F00FF947
:10128000112000F017FA7820FFF78CF9B12000F058
:1012900011FA012000F0D6F92C2000F0D3F92D200E
:1012A00000F0D0F9B22000F005FA012000F0CAF9F0
:1012B0002C2000F0C7F92D2000F0C4F9B32000F075
:1012C000F9F9012000F0BEF92C2000F0BBF92D2027
:1012D00000F0B8F9012000F0B5F92C2000F0B2F9C7
:1012E0002D2000F0AFF9B42000F0E4F9072000F061
:1012F000A9F9C02000F0DEF9A22000F0A3F9022035
:1013000000F0A0F9842000F09DF9C12000F0D2F98E
:10131000C52000F097F9C22000F0CCF90A2000F0B7
:1013200091F9002000F08EF9C32000F0C3F98A2063
:1013300000F088F92A2000F085F9C42000F0BAF9FD
:101340008A2000F07FF9EE2000F07CF9C52000F043
:10135000B1F90E2000F076F9362000F0ABF9C82084
:1013600000F070F9E02000F0A5F90F2000F06AF914
:101370001A2000F067F90F2000F064F9182000F03F
:1013800061F92F2000F05EF9282000F05BF92020A1
:1013900000F058F9222000F055F91F2000F052F912
:1013A0001B2000F04FF9232000F04CF9372000F00B
:1013B00049F9002000F046F9072000F043F9022027
:1013C00000F040F9102000F03DF9E12000F072F942
:1013D0000F2000F037F91B2000F034F90F2000F047
:1013E00031F9172000F02EF9332000F02BF92C20D2
:1013F00000F028F9292000F025F92E2000F022F92C
:10140000302000F01FF9302000F01CF9392000F0E6
:1014100019F93F2000F016F9002000F013F9072019
:1014200000F010F9032000F00DF9102000F00AF987
:101430002A2000F03FF9002000F004F9002000F01D
:1014400001F9002000F0FEF87F2000F0FBF82B20CF
:1014500000F030F9002000F0F5F8002000F0F2F87C
:10146000002000F0EFF89F2000F0ECF8F02000F0F2
:1014700021F9012000F0E6F8F62000F01BF9002029
:1014800000F0E0F83A2000F015F9052000F0DAF855
:10149000292000F00FF9BDE8104000F00DB810B59C
:1014A000642000F02FFBBDE81040322000F02ABB82
:1014B0000B46024600F012B807482C21018100219A
:1014C00081718021018041802A2141812B218181EC
:1014D000C821362000F00EB9B40000202DE9F041FB
:1014E000DFF8588007461C4615460E46B8F80A0035
:1014F00000F0E0F8380A00F0A5F8BF1CF8B200F0E0
:10150000A1F8280A00F09EF8AD1CE8B200F09AF8A5
:10151000B8F80C0000F0CEF8300A00F093F8F61C92
:10152000F0B200F08FF8200A00F08CF8E41CE0B272
:1015300000F088F8BDE8F04100F0D6B8B400002013
:101540002DE9FF4F83B08B4610A9DFF8E89091E8B2
:101550003100203800F0FF080BEB0400401E83B27E
:101560000398924600EB5400B9F80010401E019118
:1015700082B259460398FFF7B1FF05B3002546E054
:101580000C2C05D02C4800EB08100026475D11E01C
:101590002A4808EB480100EB8100F6E7F80702D083
:1015A0000AF0FF0001E00698C0B200F04BF87F0897
:1015B000761CF6B2B6EB540FF0D36D1CEDB2A5421B
:1015C000DED326E00C2C08D01B4800EB08100026C8
:1015D000475D0BEB0500009014E0184808EB48014C
:1015E00000EB8100F3E700BFA9F800A0F80706D0E0
:1015F000009881B20398304480B2FFF715FE7F084F
:10160000761CF6B2B6EB540FEED36D1CEDB2A542CC
:10161000D8D30198A9F8000009484188008807B08C
:10162000491EBDE8F04F401E8BB282B20021084631
:10163000FFF754BF1000002032200008BE1B000836
:10164000B400002031B509484FF4805404600849C3
:10165000402008614FF0FF33012269460548FFF73B
:1016600025FC0248001F046038BD0000140C014036
:10167000001001401400002038B50B494FF480548D
:101680000C600A4A40211161010A8DF800108DF8A2
:1016900001004FF0FF33022269460548FFF706FCC0
:1016A0000148001F046038BD140C014000100140C7
:1016B0001400002031B509484FF4805404600849F3
:1016C000402048614FF0FF33012269460548FFF78B
:1016D000EDFB0248001F046038BD0000140C0140FF
:1016E000001001401400002001480089FFF7E2BF0C
:1016F000B400002010B50C46FFF7DCFFE0B2BDE8F7
:101700001040FFF79FBF00002DE9F04186B0002494
:1017100024480094019402940394816941F01001DB
:101720008161816901F010010491816941F020011A
:101730008161816901F020010491816941F0080112
:101740008161816901F008010491816941F004011E
:1017500081618069144F00F004004FF480550490BB
:10176000002229463846FFF72BF8DFF84080002298
:1017700040214046FFF724F80095022601250396F4
:10178000CDE9015469463846FEF71EFF4020CDE9F9
:101790000005CDE9024669464046FEF715FF06B052
:1017A000BDE8F08100100240000C01400010014033
:1017B0000F4810B50D4901604FF48271416000215E
:1017C0008160C1604FF400720161C0E90512C1611E
:1017D0000162416281620A21C162FFF7D3FA0028E7
:1017E00003D0BDE81040FEF776BD10BD00380040C4
:1017F000140000201CB500240E4800940C490194EC
:1018000001604721C0E901144FF6FF718461C16096
:10181000FFF756FC08B1FEF75EFD009469460548E7
:101820000194FFF70FFC002801D0FEF754FD1CBD0A
:10183000001000406C000020FEE7FEE7704738B55E
:101840000B46009204460022802100F009F800288F
:1018500004D0606D40F020006065032038BD0000BA
:101860002DE9F8431E46914688460446089DFEF73A
:10187000ADFF401B351AFEF7A9FF07462548006853
:10188000C0F3CB30684338E0701C37D0FEF79EFFC2
:10189000C01BA84203D215B1009860B32CE02068A9
:1018A000416821F0E00141606068B0F5827F0BD1B2
:1018B000A068B0F5004F02D0B0F5806F04D1206869
:1018C000016821F040010160A06AB0F5005F09D114
:1018D0002068016821F4005101602068016841F42A
:1018E00000510160012084F85100002084F850006C
:1018F0000320BDE8F8830025401E00902068816821
:1019000038EA010004D000214945BDD10020F0E7AC
:101910000121F9E70C000020704700002DE9FF4F7E
:1019200083B00446DDE91065814630782F4FDDF83D
:1019300048A09B468846002854D03988A1EB550022
:10194000A0424FDB7888421B42454BDB3078802831
:1019500015D9481BA04245DB424543DB202D35D03D
:10196000CDE9006A059A182D5B464146204636D0DF
:10197000FEF7B4FC601984B216F8020FDBE70D28FD
:1019800011D00C2D16D0102D14D010228DE8050486
:101990005B4641462046059AFFF7D2FD0834A4B2C3
:1019A00016F8010FC7E708EB05001FFA80F84C4650
:1019B000761CF5E78DE821045B4641462046059AF2
:1019C000FFF7BEFD04EB550084B2E9E7CDE9006AFC
:1019D0005B4641462046059AFEF76EFDCAE7FEF7D4
:1019E000F3FCC7E707B0BDE8F08F0000B4000020AB
:1019F000FEF7F2BE30B58FB028216846FEF706FC30
:101A000014210AA8FEF702FC01210804CDE9001008
:101A10000024029402250491CDE907504FF4E01010
:101A200009906846FFF71EF808B172B6FEE70F206E
:101A3000CDE90A054FF48060CDE90C4002210AA8E7
:101A40000E94FEF753FF002801D072B6FEE70FB0E8
:101A500030BD7047F0B502681C4B1D4D1D4E1E4F2A
:101A60001E4C4FF0804C984209D0A04207D06045F0
:101A700005D0A84203D0B04201D0B84204D122F030
:101A8000700E4A6842EA0E02984209D0A04207D07E
:101A9000604505D0A84203D0B04201D0B84203D17E
:101AA00022F44075CA682A434D6922F080022A4315
:101AB00002608A68C2620A688262984201D0A042CB
:101AC00001D10969016301214161F0BD002C014090
:101AD0000004004000080040000C004000340140B9
:101AE000FEE70907090E002804DB00F1E02080F87A
:101AF0000014704700F00F0000F1E02080F8141D82
:101B0000704700000D4900220B685A620A6813688A
:101B100043F00103136009684A6A8242FCD3086AF1
:101B200041F21112104207D1086A9210104203D1FB
:101B3000086820F001000860704700006C00002079
:101B40000EB5FEF751FEFFF755FFFFF7DDFDFFF77E
:101B500051FEFFF72DFEFFF790FB0020FFF7F4FA90
:101B60000B494FF6FF707F23088000211A46084674
:101B7000FFF766FB0122102106A08DE80700022175
:101B80004FF6E0734FF4FC620846FFF7C7FEFEE72E
:101B9000100000204475647500000000010202037B
:101BA0000405060708090A0B0C0D0E0F10100000A3
:101BB00000000000000001020304060708090000FD
:101BC0000000000000000000000000000404040405
:101BD00004040004000000140A0A000000000000D1
:101BE0000000000014143F140A3F0A0A0000000419
:101BF0001E1505060C14150F0400000012150D0A21
:101C0000142C2A1200000000040A0A1E15150936B9
:101C1000000000020201000000000000000000209F
:101C20001008080808080810200000020408080826
:101C300008080804020000000004150E0E15040038
:101C4000000000000404041F04040400000000005D
:101C50000000000000000002020100000000001F60
:101C60000000000000000000000000000000000272
:101C7000000000100808080404020202010000002D
:101C80000E1111111111110E0000000004060404C0
:101C90000404040E000000000E1111080402011FCC
:101CA000000000000E11100C1010110E00000000BA
:101CB000080C0A0A091E0818000000001F01010F85
:101CC0001010110E000000000E09010F1111110E6D
:101CD000000000001F0908040404040400000000C0
:101CE0000E11110E1111110E000000000E11111134
:101CF0001E10120E0000000000000400000000048E
:101D000000000000000000040000000404000020A7
:101D100010080402040810200000000000001F004A
:101D2000001F000000000002040810201008040238
:101D3000000000000E11110804040004000000005F
:101D40000E111915151D011E0000000004040C0AD7
:101D50000A1E1233000000000F12120E1212120F90
:101D6000000000001E1101010101110E0000000021
:101D70000F1212121212120F000000001F120A0E90
:101D80000A02121F000000001F120A0E0A020207B8
:101D9000000000001C1201013911120C00000000AB
:101DA0003312121E12121233000000001F0404042A
:101DB0000404041F000000003E0808080808080981
:101DC0000700000037120A060A0A12370000000056
:101DD000070202020202223F000000001B1B1B1B25
:101DE00015151515000000003B1216161A1A1217C9
:101DF000000000000E1111111111110E0000000061
:101E00000F12120E02020207000000000E11111143
:101E10001117190E180000000F12120E0A121237B5
:101E2000000000001E1101060810110F0000000044
:101E30001F1504040404040E0000000033121212E3
:101E40001212120C000000003312120A0A0C0404D1
:101E5000000000001515150E0A0A0A0A000000000D
:101E60001B0A0A04040A0A1B000000001B0A0A04D9
:101E70000404040E000000001F0908040402121FDD
:101E80000000001C04040404040404041C000002F8
:101E900002020404080808100000000E08080808E0
:101EA000080808080E0000040A00000000000000F6
:101EB000000000000000000000000000003F0004DF
:101EC0000000000000000000000000000000000C06
:101ED000121C123C000000000302020E1212120E2D
:101EE000000000000000001C1202021C00000000A4
:101EF0001810101C1212123C000000000000000C10
:101F0000121E021C000000003804041E0404041EFB
:101F1000000000000000003C120C021E221C000009
:101F20000302020E12121237000000000400000625
:101F30000404040E000000000800000C0808080853
:101F4000080700000302023A0A0E123700000000E0
:101F5000070404040404041F000000000000000F34
:101F600015151515000000000000000F12121237A1
:101F7000000000000000000C1212120C0000000013
:101F80000000000F1212120E020700000000001CD9
:101F90001212121C103800000000001B060202077B
:101FA000000000000000001E020C101E00000000D7
:101FB0000004040E04040418000000000000001BCC
:101FC0001212123C0000000000000037120A0C043C
:101FD0000000000000000015150E0A0A00000000B5
:101FE0000000001B0A040A1B00000000000000376C
:101FF000120A0C04040300000000001E0804041E62
:102000000000001808080804080808081800080854
:102010000808080808080808080800060404040856
:10202000040404040600022518000000000000005B
:1020300000000000000000000000000000000000A0
:102040000000000000080808080808080000181828
:10205000000000486C241200000000000000000096
:1020600000000000002424247F1212127F1212129A
:1020700000000000081C2A2A0A0C1828282A2A1CFA
:10208000080800000022251515152A58545454221A
:1020900000000000000C1212120A76252911916E20
:1020A000000000060604030000000000000000001D
:1020B0000000004020101008080808080810102030
:1020C0004000000204080810101010101008080446
:1020D00002000000000008086B1C1C6B08080000D0
:1020E000000000000000080808087F080808080031
:1020F00000000000000000000000000000000606D4
:1021000004030000000000000000FE0000000000CA
:1021100000000000000000000000000000000606B3
:102120000000000080404020201010080804040235
:102130000200000000182442424242424242241857
:102140000000000000080E08080808080808083EFB
:1021500000000000003C4242422020100804427E61
:1021600000000000003C4242201820404042221C57
:102170000000000000203028242422227E20207825
:1021800000000000007E0202021A26404042221C8B
:102190000000000000382402021A2642424224189D
:1021A00000000000007E222210100808080808081D
:1021B00000000000003C4242422418244242423CBB
:1021C0000000000000182442424264584040241C91
:1021D000000000000000000018180000000018189F
:1021E00000000000000000000008000000000008DF
:1021F00008040000004020100804020408102040D9
:1022000000000000000000007F0000007F000000D0
:102210000000000000020408102040201008040202
:1022200000000000003C42424640201010001818F8
:1022300000000000001C225A555555552D42221C05
:1022400000000000000808181414243C224242E751
:1022500000000000001F2222221E22424242221FB2
:1022600000000000007C4242010101010142221CE9
:1022700000000000001F2242424242424242221F0E
:1022800000000000003F4212121E12120242423FA2
:1022900000000000003F4212121E1212020202074A
:1022A00000000000003C2222010101712122221CB9
:1022B0000000000000E7424242427E42424242E7C2
:1022C00000000000003E0808080808080808083E4A
:1022D00000000000007C10101010101010101010E2
:1022E000110F0000007722120A0E0A121222227722
:1022F0000000000000070202020202020202427F06
:10230000000000000077363636362A2A2A2A2A6B41
:102310000000000000E346464A4A525252626247B9
:1023200000000000001C2241414141414141221C6A
:1023300000000000003F424242423E020202020709
:1023400000000000001C2241414141414D53321C1C
:1023500060000000003F4242423E1212222242C769
:1023600000000000007C4242020418204042423E2D
:1023700000000000007F4908080808080808081C39
:102380000000000000E74242424242424242423CD8
:102390000000000000E74242222424141418080818
:1023A00000000000006B4949494955553622222258
:1023B0000000000000E7422424181818242442E7F3
:1023C0000000000000772222141408080808081CE6
:1023D00000000000007E2120101008040442423F4B
:1023E0000000007808080808080808080808080815
:1023F00078000000020204040808081010202020C1
:102400004040001E1010101010101010101010106E
:102410001E00003844000000000000000000000022
:1024200000000000000000000000000000000000AC
:1024300000FF00060800000000000000000000008F
:102440000000000000000000003C4278444242FCD2
:102450000000000000030202021A26424242261A2D
:10246000000000000000000000384402020244386E
:10247000000000000060404040784442424264D87E
:102480000000000000000000003C427E0202423CCE
:102490000000000000F08808087E08080808083ED0
:1024A0000000000000000000007C22221C023C42D0
:1024B000423C000000030202023A4642424242E726
:1024C00000000000000C0C00000E08080808083E80
:1024D00000000000003030000038202020202020A4
:1024E000221E0000000302020272120A1612227754
:1024F00000000000000E0808080808080808083E48
:102500000000000000000000007F9292929292B7BB
:102510000000000000000000003B4642424242E74B
:102520000000000000000000003C42424242423CE9
:102530000000000000000000001B26424242221E54
:102540000207000000000000007844424242447844
:1025500040E000000000000000774C040404041F69
:102560000000000000000000007C42023C40423EAF
:102570000000000000000008083E080808080830B5
:10258000000000000000000000634242424262DCA2
:10259000000000000000000000E7422424140808A6
:1025A000000000000000000000EB494955552222C0
:1025B0000000000000000000007624181818246EA7
:1025C000000000000000000000E742242414180866
:1025D0000807000000000000007E22100808447E6A
:1025E000000000C0202020202010202020202020BB
:1025F000C00010101010101010101010101010103B
:10260000101000060808080808100808080808083C
:1026100006000C32C20000000000000000000000B4
:1026200000000000000000001FE01FC06FD077B066
:10263000703070307030703070307030201070300A
:102640007030703070307030703067D06FE01FE0E5
:102650001FE00000000000003800780036002E0067
:102660000E000E000E000E000E000400000004001C
:102670000E000E000E000E000E000E000E000E00EA
:1026800004000000000000003FF07FE07FE03FD04A
:10269000003000300030003000301FD01FE02FE04D
:1026A00077E070007000700060006FF05FF03FF046
:1026B0003FF00000000000003FF07FF07FE03FD0DF
:1026C000003000300030003000303FB07FD07FD08D
:1026D0003FB000300030003000303FD07FE07FF06E
:1026E0003FF00000000000002010703070307030AB
:1026F0007030703070307030703037B00FD00FD015
:1027000007B00030003000300030003000300030C2
:1027100000100000000000001FF05FF06FF077F085
:1027200070007000700070003F801FC01FC00FB0AD
:10273000003000300030003000303FD07FD07FE0EC
:102740003FE00000000000001FF01FF06FF077F086
:102750007000700070007000700077C02FC06FD0E4
:1027600077B0703070307030703067D06FE01FE03D
:102770001FE00000000000003FE07FE07FD03F90BE
:102780000030003000300030003000300010001009
:1027900000300030003000300030003000300030B9
:1027A00000100000000000001FE01FC06FD077B0D5
:1027B0007030703070307030703077B02FD06FF074
:1027C00077B0703070307030703067D06FE01FE0DD
:1027D0001FC00000000000001FE01FC06FD077B0D6
:1027E000703070307030703070306FB00FD00FF0CC
:1027F0000FB000300030003000303FD07FE07FE08D
:102800003FC00000000000000000000000000000C9
:1028100000006000600020000000000000000000D8
:1028200000002000600060000000000000000000C8
:102830000000000000000000000000000000000098
:102840000000000000000000000000000000000088
:102850000000000000003C003C003C0000000000C4
:102860000000CFB50000000C3FF8030006380C70E4
:102870001FC0038C0E0C3FFE0DB60D98199C318CB9
:1028800031866786CDB30000000018301BFF306032
:1028900036CC6CCC7D8619FE18DB30D87FD870DB47
:1028A000019B1F9B771FBCE00000000006C036FFA5
:1028B00036C0378037B03718060C00003FFE36664A
:1028C0003666366636667FFFBFD80000000030608F
:1028D000306037FF7EFB379E338C3F06380031FC7B
:1028E00070603060306030607FFFA1E6C00023E898
:1028F0002C18D808100830003000300030003000AC
:102900003000100018080C1003E00000CEC20000D8
:10291000000000001000000C7FF004402004402064
:10292000014020027FE0624020324020124020041B
:102930007FE004000005001004FFF8088910788982
:1029400010188910188910188910188910188916FC
:102950000776E8000000CAAA00000000000010008E
:1029600010087FF80C6010046010016010427FF0C6
:102970003260101A6010127FF004690004088005AC
:10298000088C08888C18C8983848901868A0104897
:10299000C010088030088010088C03F77000000019
:1029A000B6C8000000001000000800000C080FFF6F
:1029B000FC0840000830C008208808209C0FFFE079
:1029C000082080082080083F8008000019FFE018D8
:1029D00020C0102080101180100B00200600201B4A
:1029E000804060FE478018000000B5E7000000004E
:1029F00000000018000010000010000010000FFF81
:102A0000F00810200810200810200810200FFFE008
:102A10000810200810200810200810200FFFE008E0
:102A2000100000100800100800100400180C000F1F
:102A3000F8000000D1B90000000000000000180FED
:102A4000FFFC0C00000C0C000C0C000C0C000C0C1F
:102A5000000C0C000C0C000DFFF00C0C000C0C001A
:102A6000080C80080C40080C60080C30100C20107A
:102A70000C00200C0C27F3F0400000000000C1F710
:102A800000000000080000060008020804FFFC0621
:102A90000400000400010840411020312030127F62
:102AA000D012001004646004644004644008644070
:102AB00078644018444018444418C44418844419A5
:102AC000047E060400000000A1E6000000000000F3
:102AD0000000000C0000121F801230681260180CF9
:102AE000C01800800801800801800001800001807A
:102AF0000001800001800000800000C00000C010C4
:102B00000060200038C0000F00000000000000003E
:102B10000000A3BA00000000000000000000000058
:102B200000000000000000000000000000000000A5
:102B300000000000000000000000001C00001C005D
:102B4000000C00000000000000000C00001C000051
:102B50001C0000000000000000000000A3A5000011
:102B6000000000000000000000000700180880308E
:102B70000880600880C00881800881000882000504
:102B800004000208000011E0002110004110008341
:102B9000100103100201100401100800E000000001
:102BA000000000000000A3D60000000000000000AC
:102BB000000000000FC1F00300400300400100804E
:102BC00001808001810000C10000C300006200009C
:102BD00062000024000034000018000018000018F3
:102BE00000000000000000000000000000000000E5
:102BF000A3C1000000000000000000000000000071
:102C000000000800001800001C00002C0000240038
:102C100000660000460000C30000830000FF0001C2
:102C200001800101800200C00200C00F83F000009B
:102C300000000000000000000000D7D600000000E7
:102C400000060000000300000000C0000001C0C03A
:102C5000000107C00001FF00021FFE0007F01C007A
:102C600007C070000F00E0000E03F0001C0FF00022
:102C70003C0F70003C00E0001800C0000000C000E5
:102C80000000C000000060000000200000003700CD
:102C90000001FF00007FF80007F830001F803000BF
:102CA0000080300000C03000006060000018E000CC
:102CB000000FC0000006000000000000DC2C00082F
:102CC00000000020140000006C010008F02C000837
:102CD0001400002014070000880100080100000013
:102CE00010000000000000000024F40000000000BC
:0400000508000131BD
:00000001FF
